:10400000001000209D450000D9450000D945000062
:10401000D9450000D9450000D9450000D945000028
:10402000D9450000D9450000D9450000D945000018
:10403000D945000000EC0100216D0100D9450000C8
:10404000D9450000D9450000D9450000D9450000F8
:10405000D9450000D9450000D9450000D9450000E8
:10406000D9450000D9450000D9450000A1940000C1
:10407000D9450000D9450000D9450000D9450000C8
:10408000D9450000D9450000D9450000D9450000B8
:10409000D9450000F14E0000D9450000D945000087
:1040A000D94500009954000075540000D94500001E
:1040B000D9450000D9450000D9450000CDDA0100FE
:1040C00071DA01006DDA0100C5D20100C9DA010020
:1040D00075DA01008DDA010079DA0100D9BF01003B
:1040E0000DDB0100D9450000D9450000D94500008D
:1040F000D9450000D9450000D9450000D945000048
:10410000D9450000D9450000D9450000D945000037
:10411000D9450000D9450000D9450000D945000027
:10412000D9450000D9450000D9450000D945000017
:10413000D945000010B5054C237833B9044B13B1B1
:10414000044800E000BF0123237010BD441200208A
:10415000000000001C13020008B5034B1BB103490B
:10416000034800E000BF08BD000000004812002026
:104170001C130200A3F5803A704700BF174B002BB9
:1041800008BF134B9D46FFF7F5FF00218B460F46F6
:104190001348144A121A19F00EFF0E4B002B00D0D0
:1041A00098470D4B002B00D09847002000210400B9
:1041B0000D000D48002802D00C4800E000BF19F0A7
:1041C0008FFE2000290000F057F819F075FE00BF9F
:1041D00000000800000000000000000000100020A7
:1041E0004412002080290020000000000000000090
:1041F00000B587B0039002910192019A0299039849
:1042000014F04EF80590074B1B7883F00103DBB2E6
:10421000002B02D0019B06221A70059B184607B09E
:104220005DF804FB0010002000B583B001900198F8
:1042300000F016FB0346012B03D1054B00221A7038
:1042400002E0034B01221A7000BF03B05DF804FBCB
:104250000010002082B003468DF80730034A9DF815
:104260000730137000BF02B0704700BF001000207D
:1042700000BF704700BF704708B504F0FFFCFFF7B0
:10428000F7FF04F008FDFFF7F5FFFAE782B00346F9
:104290008DF807300023184602B0704700B583B090
:1042A0001D4B1B78002B32D100238DF807309DF871
:1042B0000730002B05D09DF8073063F07F038DF8A1
:1042C00007309DF807301846FFF7E0FF034683F0FC
:1042D0000103DBB2002B16D04FF4E05012F0C4FC07
:1042E00012F03CFD12F0FAFC06F0F4F80EF06EF954
:1042F00009F0FEFF07F0CBFD0EF0F8FF00220221CF
:10430000042012F0CFFC044B01221A7000E000BF21
:1043100003B05DF804FB00BF6012002008B5094B34
:104320001B7883F00103DBB2002B09D10CF020F8DD
:104330000CF01EF812F0AEFC024B00221A7000E0E6
:1043400000BF08BD6012002008B500F001F900BFF1
:1043500008BD08B50421002002F0B0FA04210620AF
:1043600002F0ACFA0721072002F0A8FA0721082082
:1043700002F0A4FA07211C2002F0A0FA0721242051
:1043800002F09CFA0721252002F098FA0023184633
:1043900008BD000000B585B001AB184603F02EFF44
:1043A000224B9B6D03F48033002B19D1204B1B68EB
:1043B00023F4FF0323F4FE431D4A43F4BC1343F4E8
:1043C000A06313601B4B1B6823F47043194A43F42A
:1043D00040431360174B1B68164A43F4E0631360B5
:1043E0009DF80530012B15D19DF80430002B11D11B
:1043F0004FF0005303930023029308E0039B1B68D4
:10440000039B03F580430393029B01330293029BBA
:10441000052BF3D9084BD3F88030074A43F0030348
:10442000C2F8803000BF05B05DF804FB00C000405A
:1044300034C0004030C000400080004008B5FFF7A5
:10444000A9FF04F0FFFB00F0A1F804F045FB04F025
:104450004DFB04F0ADFBFFF77CFF04F022FB00F006
:104460008CF800BF08BD08B500F032FF00F02EF850
:1044700000F034F800BF08BD08B500F059F805F0A9
:10448000F7FB00BF08BD08B504F0C6FA04F0D0FA87
:1044900004F0F4FAFFF702FF00BF08BD08B504F00E
:1044A00089FF0FF083FD11F04FF911F0F7F810F0CC
:1044B000A7FF00BF08BD00BF704708B504F090FD1E
:1044C00000BF08BD00BF704700BF704708B5024875
:1044D00000F0B4F900BF08BDE8EB010008B5064BD9
:1044E0001B680649184601F003FD034B1B6818467C
:1044F00000F006F800BF08BD0C10002010110020CD
:1045000084B0019025230393019B002B04D0044A1F
:10451000019B136000230393039B184604B070476C
:104520009C120020014B1B68184670479C1200200B
:1045300008B500F003F80346184608BD08B5012386
:1045400004220421032003F099FB0023184608BD30
:1045500008B5002304220421032003F08FFB00236D
:10456000184608BD82B003460A468DF80730134648
:104570008DF8063000BF02B0704708B50121152044
:10458000FFF7F0FFFFF7E0FE00BF08BD08B501210F
:104590001520FFF7E7FF00BF08BD000000B583B09E
:1045A00000F01CF8094B0193094B009307E0019AB6
:1045B000131D0193009B191D009112681A60009B46
:1045C000044A9342F3D3FFF7D9FD00BF241302003E
:1045D0000010002044120020FEE70000064B074AAE
:1045E0009A60054BD3F88830034A43F47003C2F84D
:1045F000883000BF704700BF00ED00E000400000C1
:10460000014B1B68184670473C11002082B0019096
:10461000024A019B136000BF02B070473C110020AA
:1046200000B583B0002301930E4B1B6F03F007030B
:10463000032B09D0032B0ED8012B09D0022B0AD152
:10464000FFF7DEFF019007E0074B1B68019303E0D3
:10465000064B019300E0FEE7019B184603B05DF8AE
:1046600004FB00BF0080004034110020002D310108
:1046700000B583B0FFF7D4FF01900A4B1B6F1B0BF3
:1046800003F003030093009B0133019AB2FBF3F3A1
:104690000193054A019B1360019B184603B05DF826
:1046A00004FB00BF0080004040110020014B184671
:1046B000704700BF00B4C404014B1B681846704724
:1046C0003411002000B583B00190074A019B1360AC
:1046D000064B1B6F03F00703032B01D1FFF7C8FF45
:1046E00000BF03B05DF804FB3411002000800040DF
:1046F0000023184670470000014B1846704700BF62
:10470000002D310182B0002301932C4B9B681B0CC0
:1047100003F01F030C2B4CD801A252F823F000BF6A
:1047200055470000B3470000B3470000B3470000FF
:10473000B3470000B34700008F47000095470000D3
:104740009B470000B3470000A1470000A7470000B7
:10475000AD470000194B9B6803F04073B3F1007F35
:104760000ED0B3F1007F0ED8002B03D0B3F1807FC1
:1047700003D008E0124B019308E0124B019305E0CF
:10478000114B019302E00023019300BF12E00F4B95
:1047900001930FE00E4B01930CE00E4B019309E0E7
:1047A0000D4B019306E00D4B019303E00C4B01937D
:1047B00000E000BF019B184602B070470040014A6C
:1047C00000093D0080841E0040420F00405DC6008D
:1047D0000024F400C0EA210180BA8C010048E801FD
:1047E000005A62024FF40043184670474FF47A7340
:1047F00018467047014B1B68184670473811002057
:1048000084B001900B4B1A68019B13440A4A9342EF
:1048100002D94FF0FF3309E0064B1B680393054BA9
:104820001A68019B1344034A1360039B184604B0A3
:10483000704700BF441100200080012000B583B004
:104840000190019B5B68002B05D0019B5B68019880
:104850009847034600E02223184603B05DF804FBA6
:1048600000B583B00190019B5B69002B05D0019BD3
:104870005B6901989847034600E0FF23184603B0A0
:104880005DF804FB82B001900091019B1A68009BC7
:1048900022FA03F303F00103184602B0704700B593
:1048A00083B0034600918DF807309DF80730002B48
:1048B0000AD09DF80730012B06D09DF80730022B57
:1048C00002D09DF80730032B9DF8072013465B00AC
:1048D00013441B01143303F1804303F57033009933
:1048E0001846FFF7CFFF0346184603B05DF804FBF8
:1048F00000B583B003468DF807309DF807300021DE
:10490000184600F001FD00BF03B05DF804FB82B063
:1049100003460A468DF8073013468DF8063000BF6F
:1049200002B0704700B585B0034600918DF807309E
:10493000009B0393039B1B680293029B1B78022B33
:1049400013D0029B1A79029B5B7919461046FFF738
:10495000A6FF0346002B0CBF01230023DBB21A463F
:10496000029B1A700398FFF75FFC00BF05B05DF86B
:1049700004FB000000B589B00390039B0793079BDD
:104980001B68069301211520FFF7C1FF069B1879CC
:10499000069B5B7919460023012203F06FF9069B01
:1049A0001A79069B5B7919461046FFF778FF034694
:1049B000002B0CBF01230023DBB21A46069B1A70A2
:1049C000069B9B79022B16D100F082FC069B5B793B
:1049D000079A0B49184600F0B9FC0590069B187918
:1049E000069B5B7919460123019301230093012360
:1049F000059A03F0D9F80023184609B05DF804FBC6
:104A00002549000084B00190019B0393039B1B6820
:104A10000293029B1B78184604B0704700B587B01C
:104A20000190019B0593059B1B680493049B1B78D5
:104A3000022B48D0049B1A79049B5B7919461046D7
:104A4000FFF72DFF0346002B14BF012300238DF831
:104A50000F30049B9B79012B28D1049B5B88ADF818
:104A60000C30BDF80C305B009AB29DF80F309BB251
:104A700013439BB24FF6C0721343ADF80C304FF6A0
:104A8000E072BDF80C30934202D1049B01221A70EF
:104A90004FF6DF72BDF80C30934202D1049B002226
:104AA0001A70049BBDF80C205A800DE0049B9B7982
:104AB000002B09D19DF80F3083F00103DBB21A46B9
:104AC000049B1A7000E000BF07B05DF804FB00B55E
:104AD00085B00190019B0393039B1B680293029B8B
:104AE0001B78022B06D1029B00225A800198FFF707
:104AF00041FF00E000BF05B05DF804FB00B587B0E2
:104B00000390039B0593059B1B680493049B1B78F0
:104B1000022B1BD0049B9B79022B13D1049B5B7946
:104B20001846FFF7E5FE049B1879049B5B7919464C
:104B3000049B5B791A460023019300230093002312
:104B400003F032F8049B02221A7000E000BF07B0A5
:104B50005DF804FB82B00190019B002B02DB019BFE
:104B60001F2B01DD00230BE0074BDB6A0121019ABB
:104B700001FA02F21340002B14BF01230023DBB221
:104B8000184602B0704700BF0000044000B585B071
:104B900001900091204B1B7883F00103DBB2002BC6
:104BA00001D01E4B34E0019B002B01D11C4B2FE0A8
:104BB00002F0C2FE02900023039322E0194A039BF5
:104BC0001B0113440C331B7883F00103DBB2002B71
:104BD00014D0039A019B1A60124A039B1B011344D1
:104BE0000C3301221A700F4A039B1B01134400224D
:104BF0001A60029802F0B0FE002309E0039B013323
:104C00000393039B072BD9DD029802F0A5FE064B08
:104C1000184605B05DF804FBA0120020028000F0E9
:104C2000018000F0A4120020048000F000B585B0DF
:104C3000194B1B68019300238DF8043002F07CFEB1
:104C40000290164B1B78002B04D0029802F084FED1
:104C5000134B1DE0114B01221A70029802F07CFEEA
:104C60000023039309E00F4A039B1B0113440C33F9
:104C700000221A70039B01330393039B072BF2DD81
:104C800008238DF8073001AB184603F01DF9002307
:104C9000184605B05DF804FB40EC0100A0120020AE
:104CA000038000F0A412002000B58DB00B900A9193
:104CB00009920893129B0793119B06939DF840302D
:104CC00005930F9B04939DF83830039300230293C0
:104CD000089B0193099B00930A9B0B9A00210020DB
:104CE00000F07CF9034618460DB05DF804FB00B5F2
:104CF0008DB00B900A9109920893139B0793129B16
:104D000006939DF844300593109B04939DF83C3026
:104D100003930E9B0293089B0193099B00930A9BAC
:104D20000B9A0121012000F059F9034618460DB0F5
:104D30005DF804FB00B583B00190124B1B7883F043
:104D40000103DBB2002B01D00F4B17E0019B072BB7
:104D500001D90E4B12E00E4A019B1B0113440C3388
:104D60001B7883F00103DBB2002B01D0094B05E077
:104D7000019B0021184603F091F80023184603B068
:104D80005DF804FBA0120020028000F0018000F01A
:104D9000A4120020078000F000B583B00190124BF0
:104DA0001B7883F00103DBB2002B01D00F4B17E01F
:104DB000019B072B01D90E4B12E00E4A019B1B01F0
:104DC00013440C331B7883F00103DBB2002B01D0BA
:104DD000094B05E0019B0121184603F05FF8002311
:104DE000184603B05DF804FBA0120020028000F01A
:104DF000018000F0A4120020078000F000B583B00D
:104E000001900091184B1B7883F00103DBB2002B5B
:104E100001D0164B23E0019B072B02D8009B002BEF
:104E200001D1134B1BE0134A019B1B0113440C33AC
:104E30001B7883F00103DBB2002B01D00E4B0EE098
:104E4000019B1846FFF786FE0346002B03D0009B0C
:104E500001221A7002E0009B00221A7000231846FB
:104E600003B05DF804FB00BFA0120020028000F038
:104E7000018000F0A4120020078000F000B583B08C
:104E800001900091154B1B7883F00103DBB2002BDE
:104E900001D0134B1DE0019B072B02D8009B002B78
:104EA00001D1104B15E0104A019B1B0113440C3338
:104EB0001B7883F00103DBB2002B01D00B4B08E021
:104EC000019B184603F0CEF803461A46009B1A6071
:104ED0000023184603B05DF804FB00BFA0120020B9
:104EE000028000F0018000F0A4120020078000F092
:104EF00000B587B0364B1B6D0393354B5B6D039A42
:104F000013400393039B002B00DAFEE70023059375
:104F10000123049353E0039A049B1340002B48D0D1
:104F20002B4B03F500531A46049B1365059B1B018D
:104F3000284A13440293029B1B68002B39D0029B22
:104F40009B685A1C029B9A60029B1B68029A91689C
:104F5000029A5268059898470346002B14BF012314
:104F60000023DBB283F00103DBB28DF807309DF83C
:104F7000073003F001038DF80730029B5B7B012BA8
:104F800017D19DF80730002B13D0134A059B5B0106
:104F9000134403F1080213796FF3410313710E4AAE
:104FA000059B5B01134403F1180213796FF341036E
:104FB0001371059B01330593049B5B000493059BD0
:104FC000072BA8D900BF00BF07B05DF804FB00BFE6
:104FD00000000440A41200202413002010B58AB061
:104FE0000292019303468DF80F300B468DF80E3078
:104FF0007B4B1B7883F00103DBB2002B01D0794B94
:10500000EBE0029B072B10D80C9B002B0DD00D9BC7
:10501000002B0AD0109BB3F5006F06DC9DF80F3013
:10502000012B04D10E9B002B01D16F4BD5E0029BCD
:105030001B016E4A13440993099B1B7B83F00103F8
:10504000DBB2002B01D06A4BC7E004AB00221A6030
:105050005A609A60DA60029B5B01664A13440893C7
:105060009DF80E30002B1DD1089B1A4600231360BB
:1050700053609360D360089A937843F01003937061
:10508000089AD37843F03003D3709DF83C3083F016
:105090000103DBB2002B22D0089AD37843F003033C
:1050A000D3701CE0089B1A46002313605360936082
:1050B000D360089A937843F010039370089AD378DA
:1050C00043F00303D3709DF83C3083F00103DBB25F
:1050D000002B04D0089AD37843F03003D370019B9F
:1050E0000493109B9BB2013B9BB2C3F30A0399B29A
:1050F000089A138861F30E1313800C9A089B9A6028
:105100000D9A089B5A609DF8443003F00303D9B20E
:10511000089AD37861F38303D3709DF80F30012B85
:105120003BD1089A137B43F001031373089A137B56
:1051300043F002031373089AD368042161F39F03B9
:10514000D3602C4A029B5B01134403F11002089BBD
:1051500014460FCB84E80F00264A029B5B011344E0
:1051600003F1180253686FF0030161F39F0353606A
:105170000E9A2049029B5B010B4414331A609DF880
:105180000E30012B09D10D9A1A49029B5B010B4489
:1051900018331A600E9A089B5A60129B002B08D194
:1051A0009DF80F30002B04D1089A93786FF3041305
:1051B0009370099B129A1A60099B139A5A60099B73
:1051C00000229A60099B9DF80F205A73029B04A944
:1051D000089A184602F0B8FE002318460AB010BD1F
:1051E000A0120020028000F0018000F0A412002034
:1051F000078000F02413002082B003468DF80730AA
:105200009DF90730002B0CDB9DF8073003F01F02DF
:1052100005499DF907305B09012000FA02F241F8C7
:10522000232000BF02B0704700E100E082B00346D7
:105230008DF807309DF90730002B0DDB9DF8073006
:1052400003F01F0206499DF907305B09012000FAAF
:1052500002F2603341F8232000BF02B0704700BF64
:1052600000E100E084B00190019B0393039B93FA5B
:10527000A3F30293029BB3FA83F3DBB2184604B0A4
:105280007047000082B00190044B03F500531A46AA
:10529000019BC2F8203400BF02B0704700C0034039
:1052A000024BD3F824341846704700BF00C00340B7
:1052B00082B0064BD3F824340193044BD3F8202456
:1052C000019B1340184602B0704700BF00C0034066
:1052D00008B5192002F0A0FB0346002B05D01920C9
:1052E000FFF7A4FF1920FFF787FF1A2002F094FBB5
:1052F0000346002B05D01A20FFF798FF1A20FFF76E
:105300007BFF00BF08BD000000B585B003460091DB
:105310008DF8073002F010FB03909DF807300A4A21
:105320001B0113440433009A1A609DF80730064AA3
:105330001B0113440C3300221A70039802F00CFB7B
:1053400000BF05B05DF804FB2414002000B58BB04D
:105350000346029101928DF80F30FF23099302F06A
:10536000EBFA07909DF80F2040F6FC73134006936C
:10537000FFF796FF059000238DF8233019E09DF884
:105380000F209DF82330134403F00303069A1344BF
:105390000493059A049B22FA03F303F00103002B04
:1053A00002D1049B099308E09DF8233001338DF866
:1053B00023309DF82330032BE1D9099BFF2B14D018
:1053C0000E4A099B1B0113440433029A1A600B4ACC
:1053D000099B1B0113440833019A1A60074A099B71
:1053E0001B0113440C3301221A70079802F0B4FA1F
:1053F000099B18460BB05DF804FB00BF2414002085
:1054000000B587B001902BE00198FFF72BFF0590C6
:105410000122059B02FA03F3DB43019A1340019337
:10542000059B1B01124A13440493049B5B68002BE9
:1054300016D0049B1B7B002B0AD0049B5B68029355
:10544000059BDAB2049B9968029B1046984707E0D7
:10545000049B5B680393059BDAB2039B1046984755
:10546000019B002BD0D100BF00BF07B05DF804FB4B
:105470002414002000B583B0FFF71AFF034603F0A1
:10548000553301930198FFF7FDFE0198FFF7B8FF30
:1054900000BF03B05DF804FB00B583B0FFF708FF61
:1054A000034603F0AA3301930198FFF7EBFE01983E
:1054B000FFF7A6FF00BF03B05DF804FB82B00190C8
:1054C0000091019B03F500531A46009B936400BFB3
:1054D00002B0704782B001900091019B1A68009B56
:1054E00022FA03F303F00103184602B0704700B537
:1054F00083B0034600918DF807309DF80730002BEC
:105500000AD09DF80730012B06D09DF80730022BFA
:1055100002D09DF80730032B9DF8072013465B004F
:1055200013441B01143303F1804303F570330099D6
:105530001846FFF7CFFF0346184603B05DF804FB9B
:1055400082B0034600918DF807309DF80730002B9C
:105550000AD09DF80730012B06D09DF80730022BAA
:1055600002D09DF80730032B08489DF80720012141
:10557000009B994013465B0013441B01034403F551
:1055800000531033196000BF02B0704700C00340E1
:1055900082B0034600918DF807309DF80730002B4C
:1055A0000AD09DF80730012B06D09DF80730022B5A
:1055B00002D09DF80730032B08489DF807200121F1
:1055C000009B994013465B0013441B01034403F501
:1055D00080531033196000BF02B0704700C0034011
:1055E00000B585B0029111461A4603468DF80F307A
:1055F0000B468DF80E3013468DF80D309DF80E20B9
:105600009DF80F009DF8183001939DF80D30009320
:105610001346029A029902F0C7FA00BF05B05DF87E
:1056200004FB82B003460A468DF8073013468DF816
:10563000063000BF02B0704782B00190019B5B6BE7
:105640005A1C019B5A6300BF02B0704782B00190A0
:10565000019B5B6B5A1E019B5A6300BF02B07047EF
:1056600082B00190019B00225A6300BF02B07047D4
:1056700084B001900023039311E00C4A039B52F87D
:10568000233093F821301A46019B934204D1074AF4
:10569000039B52F8233006E0039B01330393039BE3
:1056A000032BEAD90023184604B0704728160020BF
:1056B00000B583B00190019B93F83130022B0BD1E0
:1056C000019B5A7F019B93F8213019461046FFF742
:1056D0000EFF0346DBB200E00023184603B05DF87E
:1056E00004FB00B587B003468DF807309DF80730FE
:1056F0001846FFF7BDFF0590059B002B40D0059B8A
:1057000093F83130022B3BD10598FFF7D1FF0346C8
:105710001A46059B1A76059B5B7E022B30D1059BB2
:1057200093F82E30DBB2002B2AD100238DF80F30F6
:10573000059B9B680DF10F0211461846FFF75EFBB3
:105740000490059B1B7E002B04D0059B93F82F3003
:10575000002B09D0059B002283F82F20059B9B6816
:105760001846FFF719FB0BE0049B002B08D19DF8AE
:105770000F30002B04D0059B9B681846FFF7DAFA20
:1057800000BF07B05DF804FB00B585B00190019B38
:1057900093F83130022B33D1019B5B7E002B09D172
:1057A000019B9A7F019B93F8223019461046FFF720
:1057B000C7FE4FE0019B5B7E012B09D1019B9A7FC5
:1057C000019B93F8223019461046FFF7E1FE41E0B5
:1057D000019B1B7E002B09D1019B9A7F019B93F8B3
:1057E000223019461046FFF7ABFE33E0019B9A7F4B
:1057F000019B93F8223019461046FFF7C9FE29E0B5
:10580000019B93F83130012B24D1019B1B7E002B8F
:1058100010D111238DF80F30019800F033FD0DF1F8
:105820000F0301221946019800F0C4FC019800F012
:1058300053FD0FE013238DF80F30019800F022FD87
:105840000DF10F0301221946019800F0B3FC0198F5
:1058500000F042FD0023184605B05DF804FB00008F
:1058600000B587B003900291019202F065F80590AF
:10587000039B9B889AB2039BDB889A4207D3019BC8
:1058800000221A60059802F067F81E4B35E0039B72
:105890001B889BB21A4613469B0013449B00083397
:1058A000039A134414220299184618F05DFB039BD7
:1058B0001B889BB21A4613469B0013449B00083377
:1058C000039A1A44019B1A60039B1B889BB2013305
:1058D000039AD28893FBF2F101FB02F29B1A9AB26F
:1058E000039B1A80039B9B889BB201339AB2039B54
:1058F0009A80059802F030F80023184607B05DF84A
:1059000004FB00BF0A7000F000B585B00190009163
:1059100002F012F80390019B9B889BB2002B07D1E9
:10592000009B00221A60039802F016F8154B25E040
:10593000019B5B889BB21A4613469B0013449B0055
:105940000833019A1A44009B1A60019B5B889BB242
:105950000133019AD28893FBF2F101FB02F29B1A08
:105960009AB2019B5A80019B9B889BB2013B9AB2E1
:10597000019B9A80039801F0EFFF0023184605B0C1
:105980005DF804FB0B7000F000B585B0019000914C
:1059900001F0D2FF0390019B9B889BB2002B07D1A3
:1059A000009B00221A60039801F0D6FF0B4B10E019
:1059B000019B5B889BB21A4613469B0013449B00D5
:1059C0000833019A1A44009B1A60039801F0C4FF3F
:1059D0000023184605B05DF804FB00BF0B7000F013
:1059E00082B00190019B1B6804225A6100BF019B99
:1059F0001B689B6903F00203002BF8D0064A019B49
:105A00001B795B01134403F5AD530C3310221A606C
:105A100000BF02B0704700BF00C0034082B00190D9
:105A2000084A019B1B795B01134403F516532C3381
:105A300010221A60019B1B6808225A6100BF02B045
:105A4000704700BF00C0034010B58AB007900691B0
:105A500000230993079B012283F82D20079B93F8CD
:105A60003230002B1DD1079B1B683C3309930798EC
:105A7000FFF7E2FD079B9868079B1969069B1A6868
:105A8000069B5B681C46079B0493094B039300230A
:105A900002930194012300931346099AFFF704F936
:105AA00004E0079B002283F82D2000BF0AB010BD40
:105AB000B55A000010B588B0039002910192019B85
:105AC0000793079B9B6A04AA11461846FFF75CFFE1
:105AD00006900798FFF7BAFD069B204A934201D132
:105AE000012337E0049B00221A61049B00229A6084
:105AF00001F022FF0590049BDB68002B08D0049B7B
:105B0000DC68049B1A68049B5B6800210798A04727
:105B1000079B9B6A04AA11461846FFF7F5FE079BF0
:105B20009B6A9B889BB2002B0CD0079B9B6A04AAA4
:105B300011461846FFF728FF049B19460798FFF700
:105B400083FF03E0079B002283F82D20059801F0D6
:105B500003FF0123184608B010BD00BF0B7000F012
:105B600084B0039002910192039B002B01D1094B59
:105B70000CE0029B002B06D0019B002B03D0019B65
:105B8000B3F5006F01D9044B00E00023184604B0C0
:105B9000704700BF027000F0037000F082B0019007
:105BA0000091009B1A7A019BDA76009B9A7A019BFE
:105BB000DA77009B5A7A019B1A77009BDA7A019B6D
:105BC00083F82020009B5A7D019B5A77009B9A7D89
:105BD000019B83F82120009BDA7D019B9A77009B33
:105BE0001A7E019B83F822200023184602B07047DA
:105BF00000B585B003900B468DF80B309DF80B3047
:105C0000002B52D0039BD87E039BDB7F19460123D8
:105C1000042202F033F8039B187F039B93F8203093
:105C200019460123022202F029F8039B93F8313030
:105C3000022B20D1039B587F039B93F821301946F8
:105C40000023012202F01AF8039B987F039B93F82C
:105C5000223019460023042202F010F8039B587FDB
:105C6000039B93F82130194601230093012301225D
:105C7000FFF7B6FC6BE0039B93F83130032B66D142
:105C8000039B587F039B93F8213019460023012280
:105C900001F0F4FF039B987F039B93F82230194691
:105CA0000023042201F0EAFF51E0039BD87E039B0E
:105CB000DB7F19460023002201F0E0FF039B187FE1
:105CC000039B93F8203019460023002201F0D6FFF1
:105CD000039B93F83130022B20D1039B587F039B09
:105CE00093F8213019460023002201F0C7FF039BDF
:105CF000987F039B93F8223019460023002201F07D
:105D0000BDFF039B587F039B93F821301946002366
:105D1000009301230122FFF763FC18E0039B93F833
:105D20003130032B13D1039B587F039B93F8213011
:105D300019460023002201F0A1FF039B987F039BDB
:105D400093F8223019460023002201F097FF002328
:105D5000184605B05DF804FB84B00190284B1B7811
:105D600083F00103DBB2002B10D00023029307E085
:105D7000244A029B002142F82310029B0133029324
:105D8000029B032BF4D91E4B01221A7000230293AD
:105D90000BE01C4A029B52F82330019A9A4201D12F
:105DA00000232AE0029B01330293029B032BF0D9CC
:105DB00000238DF80F300023029311E0114A029B5B
:105DC00052F82330002B08D10E49029B019A41F86A
:105DD000232001238DF80F3005E0029B013302934D
:105DE000029B032BEAD99DF80F3083F00103DBB24D
:105DF000002B01D0044B00E00023184604B070478C
:105E00002416002028160020027000F084B00390B1
:105E100002910192039B029A5A62039B5B6A0022E1
:105E20001A80039B5B6A00225A80039B5B6A0022F4
:105E30009A80039B002283F82C20039B019A9A628C
:105E4000039B9B6A00221A80039B9B6A00225A8054
:105E5000039B9B6A00229A80039B002283F82D20DB
:105E6000039B002283F82F2000BF04B0704700007E
:105E700000B583B00190019B93F821300A49184680
:105E8000FFF742FAFFF724FA019B00229A76019B62
:105E900000221A76019B02225A760198FFF774FCC1
:105EA00000BF03B05DF804FBE356000000B583B00B
:105EB0000190FEF7BBFE019B083300211846FEF758
:105EC00065FE0346002B01D0084B0BE0019B0C3311
:105ED00000211846FEF75AFE0346002B01D0034B63
:105EE00000E00023184603B05DF804FB0E7000F0DC
:105EF00030B58DB001900091A24B03AC1D460FCD83
:105F00000FC495E8070084E80700019B002B01D12E
:105F10009D4B4CE1009B002B01D19C4B47E138226B
:105F20000021019818F047F80198FFF799FB0198B4
:105F3000FFF712FF0B900B9B002B01D00B9B36E160
:105F4000009B1A7D019B83F83120009B1A68019BFE
:105F50001A60019B002283F83220009B1A7B019B70
:105F60001A71009B1B688A4A93420BD1019B212224
:105F700083F82320019B874A1A61019B4FF48022FA
:105F80005A6123E0009B1B68834A93420BD1019B1B
:105F9000222283F82320019B804A1A61019B4FF43F
:105FA000A0225A6112E0009B1B687D4A93420BD1EC
:105FB000019B232283F82320019B7A4A1A61019BCB
:105FC0004FF4C0225A6101E0704BF0E0009BD969A8
:105FD000009B1B6A1A460198FFF718FF009B5B683D
:105FE0000593009BDB89ADF81C30009B1B8AADF844
:105FF0001A30009B9B7C8DF81830009BDB7C8DF861
:106000001E3005238DF8193001211520FFF709FBFB
:10601000019B93F8233001211846FFF702FB002370
:106020008DF80C30009B1B6803AA1146184602F03D
:10603000D1F95D4A009B1B7B5B01134403F2AC5317
:1060400014221A60009B1B7A1A46009B9B7A1B0441
:1060500042EA0301544A009B1B7B2E335B0113442D
:1060600004331960009B5B7A1A46009BDB7A1B04A1
:1060700042EA03014C4A009B1B7B5B01134403F281
:10608000BC53196000990198FFF788FD0B900B9B9A
:10609000002B01D00B9B8AE001210198FFF7A8FD9E
:1060A0000B900B9B002B01D00B9B80E001F044FC7C
:1060B0000A90009B1B7D032B33D13B4A009B1B7B2B
:1060C0005B01134403F5AD530C3302221A60009BAD
:1060D0001B6803F580531A460423D365009BDB7DC0
:1060E0001A46009B1B7E1B0442EA03012E4A009BBA
:1060F0001B7B5B01134403F5AD5318331960009B00
:106100005B7D1A46009B9B7D1B0442EA0301264AE5
:10611000009B1B7B5B01134403F5AD5314331960E3
:1061200006E0009B1B7D022B02D10198FFF7A0FE29
:10613000009B1B684FF0FF311846FFF7BFF9009B2B
:106140001B7D032B06D1009B1B680521184602F01E
:1061500007F905E0009B1B680421184602F000F9CE
:10616000009B1B684FF440625A610198FFF79EFE46
:106170000B900A9801F0F0FB0B9B002B16D00B9BA9
:1061800015E000BF44EC0100027000F0037000F065
:10619000008005400200040000C005400200050028
:1061A000000006400200060000C00340002318461D
:1061B0000DB030BD00B589B0039002910192019AF3
:1061C00002990398FFF7CCFC0690069B002B01D0A8
:1061D000069B53E0152001F0CBFB03468DF81730EA
:1061E00005E09DF81730002B01D0FEF781FE039BE0
:1061F0009B6A9B889BB2002B05D0039B93F82E30A3
:10620000DBB2002BEDD0039B93F83230002B06D18C
:10621000039B1B689B6903F00203079301E00023C3
:106220000793079B002B02D10398FFF7D9FB039B31
:10623000012283F83020039B93F83230002B16D1D3
:1062400008E0039B1868029B5A1C02921B781946AF
:1062500002F0EEF9019B5A1E0192002BF1D100BF12
:10626000039B1B689B6903F02003002BF8D0079B5E
:10627000002B02D10398FFF7D1FB0023184609B089
:106280005DF804FB00B583B00190019B002B01D1A8
:10629000104B1AE0019B93F82E30DBB2002B0AD191
:1062A0000198FFF705FA0346002B04D1019B9B6878
:1062B0001846FEF73FFD019B93F82E30DBB2013309
:1062C000DAB2019B83F82E200023184603B05DF854
:1062D00004FB00BF027000F000B583B00190019B89
:1062E000002B01D1144B22E0019B93F82E30DBB23E
:1062F000002B1BD0019B93F82E30DBB2012B0AD16F
:106300000198FFF7D5F90346002B04D1019B9B6848
:106310001846FEF741FD019B93F82E30DBB2013B9E
:10632000DAB2019B83F82E20002300E0034B1846CD
:1063300003B05DF804FB00BF027000F0057000F0D0
:1063400000B58FB00390029101920093019A0299D7
:106350000398FFF705FC0D900D9B002B01D00D9BC2
:1063600041E0029B0693019B0793019B0893009BCE
:1063700009931F4B0A93039B1B689B6903F002035D
:106380000C930C9B002B02D10398FFF729FB039B76
:106390009B6A05AA06A91846FFF762FA0D900D9BA5
:1063A000002B01D00D9B1EE0039B93F82D30DBB238
:1063B00083F00103DBB2002B14D001F0BDFA0B9087
:1063C000039B9B6A9B889BB2002B08D0059B1946B8
:1063D0000398FFF739FB039B012283F830200B98C9
:1063E00001F0BAFA002318460FB05DF804FB00BFB5
:1063F000017000F008B5FEF73BF90346184608BDEA
:1064000084B003468DF80730002303939DF80730CE
:10641000013B0E2B36D801A252F823F0596400003C
:1064200067640000776400008564000085640000F4
:1064300085640000856400008564000085640000B8
:1064400085640000856400008564000085640000A8
:1064500085640000596400000D4B1B6F1B0B03F09B
:10646000030303930FE00A4BD3F890301B0E03F0A5
:106470001F03039307E0064B1B6F9B0A03F0010306
:10648000039300E000BF039B0133184604B070473C
:106490000080004000B583B0034600918DF80730BE
:1064A0009DF80730013B0E2B65D801A252F823F06E
:1064B000ED6400002F650000556500007765000061
:1064C000776500007765000077650000776500005C
:1064D000776500007765000077650000776500004C
:1064E0007765000077650000ED640000009B012BDC
:1064F00004D0009B022B01D0009B042B00BF01F0B5
:1065000009F901F0A7F81E4B1B6F23F44052009BC2
:10651000013B1B031A4913430B67FFF76BFF03464D
:106520000021184600F0D6FD01F09CF824E0009B05
:10653000002B02D0009B202B00BF114BD3F89030D2
:1065400023F0F852009B013B1B060D491343C1F891
:10655000903011E0009B012B01D0009B022B00BF6B
:10656000074B1B6F23F48062009B013B9B02044995
:1065700013430B6700E000BF00BF03B05DF804FBEE
:106580000080004010B584B003468DF8073000232A
:1065900003939DF80730252B00F2B88001A252F832
:1065A00023F000BF3D660000476600005166000012
:1065B000676600007D66000095660000A166000029
:1065C000B9660000C5660000D1660000DD66000007
:1065D000E9660000F5660000016700000D67000035
:1065E00047660000AD6600000D6700000D67000003
:1065F000C566000047660000676600007D66000013
:10660000676600009566000047660000B9660000F6
:106610006766000001670000A1660000A166000037
:10662000A1660000A16600006766000067660000C2
:1066300067660000D1660000DD660000FDF7F0FF30
:106640000346039363E0FEF713F8034603935EE00B
:10665000FDF7E6FF04460220FFF7D2FE0346B4FB37
:10666000F3F3039353E0FEF703F804460320FFF728
:10667000C7FE0346B4FBF3F3039348E0FDF7F8FFCE
:1066800004460320FFF7BCFE0346B4FBF3F35B08AC
:1066900003933CE003AB0021184600F097FF36E07F
:1066A00003AB0021184600F0A7FD30E003AB00214A
:1066B000184601F0D9F82AE003AB0021184600F093
:1066C000E9FD24E003AB0021184600F023FE1EE0A4
:1066D00003AB0021184601F027F818E003AB0021B6
:1066E000184601F071F812E003AB0021184600F0E3
:1066F0003BFD0CE003AB0021184600F0FFFC06E078
:1067000003AB0021184600F0C5FF00E000BF039B6B
:10671000184604B010BD00BF00B585B003468DF823
:10672000073000238DF80F309DF80730252B00F23D
:10673000BC8001A252F823F0D1670000AB680000D2
:10674000AB680000AB680000AB6800001F68000089
:106750002D68000049680000576800006568000067
:1067600073680000816800008F6800009D68000069
:10677000AB680000AB6800003B680000AB6800003D
:10678000AB68000057680000AB680000AB68000011
:10679000AB680000AB6800001F680000AB68000039
:1067A00049680000AB6800009D6800002D6800008B
:1067B0002D6800002D6800002D680000AB68000007
:1067C000AB680000AB6800006568000073680000FB
:1067D000394B1B6F03F00703013B032B1AD801A2AF
:1067E00052F823F00D680000F5670000FD67000017
:1067F0000568000004238DF80F300FE003238DF8A7
:106800000F300BE006238DF80F3007E002238DF8E0
:106810000F3003E000238DF80F3000BF46E00DF18C
:106820000F031946002000F0D1FE3FE00DF10F03E9
:106830001946002000F0E0FC38E00DF10F03194686
:10684000002001F011F831E00DF10F03194600208E
:1068500000F020FD2AE00DF10F031946002000F0A2
:1068600059FD23E00DF10F031946002000F05CFFF5
:106870001CE00DF10F031946002000F0A5FF15E004
:106880000DF10F031946002000F06EFC0EE00DF133
:106890000F031946002000F031FC07E00DF10F0353
:1068A0001946002000F0F6FE00E000BF9DF80F3012
:1068B000184605B05DF804FB0080004000B585B0C7
:1068C00003460A468DF8073013468DF8063000233C
:1068D000039300238DF80B309DF80730252B00F231
:1068E0001E8201A252F823F0816900001F6D000092
:1068F0001F6D00001F6D00001F6D0000356A000055
:10690000756A0000196B0000576B0000956B000062
:10691000ED6B0000556C0000B16C0000E16C0000F4
:106920001F6D00001F6D0000C56A00001F6D000094
:106930001F6D0000576B00001F6D00001F6D0000F1
:106940001F6D00001F6D0000356A00001F6D000004
:10695000196B00001F6D0000E16C0000756A0000FB
:10696000756A0000756A0000756A00001F6D0000FE
:106970001F6D00001F6D0000956B0000ED6B0000A7
:106980009DF80630023B042B28D801A252F823F0D0
:10699000D7690000AB690000A5690000DD6900004F
:1069A000D16900000223039319E003230393A54B4D
:1069B0009B6A03F00203002B14BF012300238DF810
:1069C0000B30A04B03F580531A460123936206E077
:1069D0000423039303E00123039300E000BF00F0CE
:1069E00099FE00F037FE984B1B6F23F00702964983
:1069F000039B13430B67FFF7FDFC0346002118467A
:106A000000F068FB00F02EFE9DF80B3083F00103D0
:106A1000DBB2002B0AD09DF80630032B08D1894B3E
:106A200003F500531A460123936202E000BF77E1A9
:106A300000BF75E19DF806300D2B06D00D2B0DDC47
:106A4000022B08D0052B03D008E00123039306E0B6
:106A50000223039303E00323039300E000BF7A4B78
:106A6000D3F8803123F003027749039B1343C1F825
:106A7000803155E19DF80630023B032B16D801A268
:106A800052F823F0A76A00009B6A0000956A000094
:106A9000A16A00000123039309E00223039306E0A7
:106AA0000323039303E00423039300E000BF664B3A
:106AB000D3F8203123F007026349039B1343C1F845
:106AC00020312DE19DF806300E2B09D00E2B21DC54
:106AD000092B02DC072B03DA1CE00B2B0DD019E08D
:106AE0005A4B5B6A594A43F001035362584B1B6887
:106AF000574A23F0040313600DE0544B5B6A534A7A
:106B000023F001035362524B1B68514A43F00403C4
:106B1000136000E000BF03E19DF80630092B0BD0A5
:106B2000092B0CDC072B04D0082B08D1012303937D
:106B300006E00223039303E00323039300E000BF76
:106B4000414BD3F8403123F003023F49039B1343E9
:106B5000C1F84031E4E09DF80630092B0BD0092B39
:106B60000CDC072B04D0082B08D10123039306E08B
:106B70000223039303E00323039300E000BF324B9F
:106B8000D3F8603123F003022F49039B1343C1F86C
:106B90006031C5E09DF80630073B052B1AD801A2ED
:106BA00052F823F0C36B0000BD6B0000C96B0000FE
:106BB000D56B0000D56B0000CF6B00000123039361
:106BC00009E00223039306E00323039303E0042375
:106BD000039300E000BF1C4BD3F8003223F0070200
:106BE0001949039B1343C1F8003299E09DF8063020
:106BF000073B052B1AD801A252F823F01B6C0000AA
:106C0000156C0000216C00002D6C00002D6C000044
:106C1000276C00000123039309E00223039306E09D
:106C20000323039303E00423039300E000BF064B18
:106C3000D3F8083223F007020349039B1343C1F83A
:106C400008326DE000C000400080004000C00740F6
:106C500010E000E09DF80630013B062B1CD801A295
:106C600052F823F0936C0000996C0000816C0000D6
:106C7000996C0000996C00008D6C0000876C00001E
:106C80000123039309E00223039306E00323039304
:106C900003E00023039300E000BF234BD3F800314F
:106CA00023F003022049039B1343C1F8003137E06E
:106CB0009DF80630052B04D00B2B05D1022303933E
:106CC00003E00323039300E000BF174BD3F88030A9
:106CD00023F003021449039B1343C1F880301FE0E3
:106CE0009DF80630092B0BD0092B0CDC072B04D0A8
:106CF000082B08D10123039306E00223039303E04A
:106D00000323039300E000BF074BD3F8403223F086
:106D100003020549039B1343C1F8403200E000BF62
:106D200000BF05B05DF804FB0080004000B589B0ED
:106D30000190019800F074FB0790079B002B03D093
:106D4000079BB3F1FF3F00BF324B5B68012B0CD1B7
:106D5000304B03F500531A460123536000BF2D4BFF
:106D60009B6903F00303002BF9D10020FFF7D4FC4B
:106D70000346042B03D100F0CDFC00F06BFC079B15
:106D800023F040730793019B234A934204D0019B55
:106D9000224A934205D009E0079B43F00073079312
:106DA00004E0079B43F08073079300BF00BF1C4BB8
:106DB000DB6803F00603002BF9D1194B9B6806939F
:106DC000174A079B9360079B03F4F8130593144B32
:106DD0009B6803F4F8130493059A049B9A4203D129
:106DE0000198FDF713FC02E00D4A069B936000201A
:106DF000FFF792FC0346042B08D1FFF7FBFA039040
:106E00000021039800F066F900F02CFC00BF09B0E7
:106E10005DF804FB00C0014040420F0080841E006A
:106E20000000014000B583B001900020FFF774FC22
:106E30000346032B00F0D1806A4B45F60E02C3F8DF
:106E40008020684B03F580531A4602239362654BFA
:106E500003F500531A460123936200BF614B9B6DFB
:106E600003F48033002BF9D1019B1B781A06019B98
:106E70005B781B051A43019BDB781B041A43019BBB
:106E80001B791B031A43019B5B799B011343019AF6
:106E900092791A43534B1A61524B9B6903F000439A
:106EA000019AD27992061343019A127A1206134379
:106EB000019A527A12041343019A927A12021343EE
:106EC000019AD27A1146474A0B439361454B1B6A9C
:106ED00023F00D03019A527B002A01D1002200E029
:106EE00008221343019A127B92001343019A527BAA
:106EF00011463C4A0B431362019B5B7B002B51D133
:106F0000384B9B6A23F03303019A927B520113435F
:106F1000019AD27B12011343324A43F00103936278
:106F200000BF304B9A6D304B13402F4A9342F8D13B
:106F30002C4B03F580531A460223936200BF294B62
:106F40009B6D03F08043002BF9D1264B1B6923F482
:106F50007003019A927812051146224A0B4313617D
:106F6000204B03F580531A464FF000439361019B79
:106F70001B7C83F00103DBB2002B05D0194B03F51A
:106F800000531A4602239362019B5B7C83F001034A
:106F9000DBB2002B18D0134B03F500531A46012324
:106FA000936211E00F4B9B6A23F03303019A927BAB
:106FB00052011343019A127C52001343019A527CEE
:106FC0001146084A0B439362019B9B7C002B05D022
:106FD000044B064AC3F8802000E000BF03B05DF810
:106FE00004FB00BF00C0004003000140F1A7FFFF09
:106FF000024B93F900301846704700BF3816002046
:1070000084B001904F230393019B5B788DF80B3084
:107010009DF80B20039B934228BF13468DF80A303E
:10702000244B4FF4D1525A62224B03F580531A4637
:10703000022353601F4B03F500531A46012353608C
:1070400000BF1C4B1B6903F48033002BF9D1019B5B
:107050001B781A029DF80A30164913434B61019BB5
:107060009B781A02019BDB781B011A43019B1B7959
:107070005B001343019A52791A430E4B9A60019BAD
:107080009B795A01019BDB791B011A43019B1B7AF7
:107090005B001343019A527A1A43064B5A60019BD4
:1070A0009B7A002B03D0034B6FF4D1525A6200BF7E
:1070B00004B070470000024082B00346ADF80630CD
:1070C000034ABDF80630138000BF02B0704700BF0E
:1070D0004811002000B583B001900091009B002B67
:1070E00004DD0121019800F055F903E00021019829
:1070F00000F050F900BF03B05DF804FB00B585B0A7
:107100000190009100230393164BD3F8803003F0D5
:107110000303022B02D0032B07D00DE0FDF7A8FAE2
:1071200003900B238DF80B300AE0FDF7EBFA039088
:1071300005238DF80B3003E000238DF80B3000BFE2
:10714000019B002B02D0019B039A1A60009B002B2D
:1071500003D0009B9DF80B201A7000BF05B05DF8AE
:1071600004FB00BF0080004000B585B00190009195
:10717000002303931F4BD3F8003103F00303032BC9
:1071800023D801A252F823F0C371000099710000C6
:10719000A7710000B5710000FDF78EFA039003237C
:1071A0008DF80B3015E0FDF725FB039007238DF8D4
:1071B0000B300EE0FDF79CFA039006238DF80B30A0
:1071C00007E001238DF80B3003E000238DF80B302E
:1071D00000BF019B002B02D0019B039A1A60009B09
:1071E000002B03D0009B9DF80B201A7000BF05B048
:1071F0005DF804FB0080004000B585B0019000916F
:1072000000230393224BD3F8203103F00703013B03
:10721000032B27D801A252F823F000BF2D720000E3
:107220003B7200004972000057720000FDF7E8F958
:10723000039004238DF80B3018E0FDF73DFA03901E
:1072400003238DF80B3011E0FDF75CFA0390052362
:107250008DF80B300AE0FDF74FFA039002238DF80A
:107260000B3003E000238DF80B3000BF019B002B97
:1072700002D0019B039A1A60009B002B03D0009B55
:107280009DF80B201A7000BF05B05DF804FB00BF2D
:107290000080004000B585B0019000910023039369
:1072A0001B4BD3F8403103F00303032B14D0032B03
:1072B00019D8012B02D0022B07D014E0FDF792FA67
:1072C000039008238DF80B3011E0FDF793FA03903B
:1072D00007238DF80B300AE0FDF788FA03900923A5
:1072E0008DF80B3003E000238DF80B3000BF019BBD
:1072F000002B02D0019B039A1A60009B002B03D045
:10730000009B9DF80B201A7000BF05B05DF804FBD0
:107310000080004000B585B00190009100230393E8
:107320001B4BD3F8603103F00303032B14D0032B62
:1073300019D8012B02D0022B07D014E0FDF752FA26
:10734000039008238DF80B3011E0FDF753FA0390FA
:1073500007238DF80B300AE0FDF748FA0390092364
:107360008DF80B3003E000238DF80B3000BF019B3C
:10737000002B02D0019B039A1A60009B002B03D0C4
:10738000009B9DF80B201A7000BF05B05DF804FB50
:107390000080004084B0019000911D4BDB6903F434
:1073A0008033B3F5803F0CBF012300238DF80B30F1
:1073B000174B41F67132DA63154B9B6823F4401387
:1073C0000393019B134A934203D9039B43F4801315
:1073D00003930F4A039B93600F4BD3F8183223F0AB
:1073E00002030393019B0D4A934203D9039B43F08D
:1073F00002030393084A039BC2F818329DF80B302E
:10740000002B02D0024B0022DA6300BF04B07047A9
:1074100000000340C017530200C0074080F0FA028A
:1074200084B0019000230393019B594A934200F0DA
:10743000A380019B564A934200F2A380019B554AC8
:10744000934200F09480019B524A934200F299804B
:10745000019B514A934200F08580019B4E4A934222
:1074600000F28F80019B4D4A934276D0019B4B4A9C
:10747000934200F28680019B494A934268D0019B67
:10748000474A93427DD8019B464A93425BD0019B79
:10749000444A934275D8019B434A93424ED0019B84
:1074A000414A93426DD8019B404A934242D0019B8E
:1074B0003E4A934265D8019B3D4A934236D0019B98
:1074C0003B4A93425DD8019B3A4A93422AD0019BA2
:1074D000384A934255D8019B374A93421ED0019BAC
:1074E000354A93424DD8019B344A934212D0019BB6
:1074F000324A934245D8019B314A93420AD0019BBC
:107500002F4A93423DD8019B002B3CD0019B2D4A32
:10751000934236D12C4B9B6D039335E02A4B5B6E27
:10752000039331E0284B1B6F03932DE0264B5B6FD9
:10753000039329E0244B9B6F039325E0224BD3F860
:107540008030039320E0204BD3F8843003931BE07A
:107550001D4BD3F88830039316E01B4BD3F88C30C7
:10756000039311E0184BD3F8903003930CE0164BC3
:10757000D3F89430039307E0134BD3F89830039378
:1075800002E000BF00E000BF039B184604B0704754
:1075900000B4C4040090D003007E5603006CDC02EB
:1075A00080D543020048E80180BA8C01C0EA21017D
:1075B0000024F400405DC600C0CF6A0000093D0011
:1075C00080841E0040420F000080E00F00B585B0AF
:1075D00001900091002302931D4BD3F8803103F0FA
:1075E0000303032B17D0032B1DD8012B02D0022B32
:1075F00009D018E002AB00211846FFF7FDFD0D236E
:107600008DF80F3013E0FDF77DF803460293052354
:107610008DF80F300BE0FDF76FF80346029302235D
:107620008DF80F3003E000238DF80F3000BF019B71
:10763000002B02D0029A019B1A60009B002B03D002
:10764000009B9DF80F201A7000BF05B05DF804FB89
:107650000080004008B502210320FEF71BFF00BF99
:1076600008BD000000B583B0022301930120FEF79E
:1076700089FF0346064A934201D8012301930199E9
:107680000320FEF707FF00BF03B05DF804FB00BF57
:1076900080F0FA0200B585B00190009100230393B9
:1076A0001B4BD3F8403203F00303032B14D0032BFE
:1076B00019D8012B02D0022B07D014E0FDF792F865
:1076C000039008238DF80B3011E0FDF793F8039039
:1076D00007238DF80B300AE0FDF788F803900923A3
:1076E0008DF80B3003E000238DF80B3000BF019BB9
:1076F000002B02D0019B039A1A60009B002B03D041
:10770000009B9DF80B201A7000BF05B05DF804FBCC
:107710000080004008B5FCF7C9FF03460021184669
:10772000FFF738FE00BF08BD00B585B0019000919D
:1077300000230393234BD3F8003203F00703013BEC
:10774000032B29D801A252F823F000BF5D77000077
:107750006B7700007977000087770000FDF742F82B
:10776000039008238DF80B301AE0FDF743F80390DF
:1077700007238DF80B3013E0FDF738F80390092349
:107780008DF80B300CE0FCF773FF03469B0A039364
:107790000C238DF80B3003E000238DF80B3000BF75
:1077A000019B002B02D0019B039A1A60009B002BC7
:1077B00003D0009B9DF80B201A7000BF05B05DF848
:1077C00004FB00BF0080004000B585B0019000912F
:1077D00000230393234BD3F8083203F00703013B44
:1077E000032B29D801A252F823F000BFFD77000037
:1077F0000B7800001978000027780000FCF7F2FFF2
:10780000039008238DF80B301AE0FCF7F3FF039088
:1078100007238DF80B3013E0FCF7E8FF03900923F2
:107820008DF80B300CE0FCF723FF03469B0A039313
:107830000C238DF80B3003E000238DF80B3000BFD4
:10784000019B002B02D0019B039A1A60009B002B26
:1078500003D0009B9DF80B201A7000BF05B05DF8A7
:1078600004FB00BF0080004000B585B0019000918E
:1078700000230393124B1B6803F00403002B07D073
:10788000FCF7F6FE034603930B238DF80B3006E05E
:107890000DF10B0203AB11461846FFF7FBFC019BF1
:1078A000002B02D0039A019B1A60009B002B03D08F
:1078B0009DF80B20009B1A7000BF05B05DF804FB1B
:1078C00010E000E082B003468DF807309DF90730E4
:1078D000002B09DB0B4A9DF90730134493F8003362
:1078E000DBB21B09DBB20AE0074A9DF8073003F060
:1078F0000F03043B13441B7EDBB21B09DBB21846AB
:1079000002B0704700E100E000ED00E082B0EFF36C
:1079100010830093009B019372B600BF019B184631
:1079200002B0704782B00190019B002B01D162B67A
:1079300000BF00BF02B0704784B0EFF31183019322
:10794000019B039330230293029B83F3118800BFB2
:10795000039B184604B0704784B00190019B0393C9
:10796000039B83F3118800BF00BF04B07047000081
:1079700000B589B003468DF807309DF9073013F143
:107980000C0F03DB9DF907303C2B00BFEFF3108396
:107990000493049B03F00103002B01D0012335E085
:1079A0009DF90730184600F037F80346002B01D048
:1079B00001232BE09DF907301846FFF783FF07905E
:1079C000EFF311830393039B0693069B002B06D0D2
:1079D000069B1B09079A9A4201D3012316E00D4B1F
:1079E0005B68C3F308030593059B002B0DD0059B33
:1079F000DBB2103BDBB25BB21846FFF763FF024617
:107A0000079B934201D3012300E00023184609B0ED
:107A10005DF804FB00ED00E084B003468DF807300C
:107A20009DF90730002B03DB9DF907303C2B00BF8D
:107A30000B4B03939DF907305A09039B53F82220FF
:107A40009DF8073003F01F0322FA03F303F001034C
:107A5000002B0CBF01230023DBB2184604B0704793
:107A600000E100E082B001904FF04023DB6E23F094
:107A70003003019A127911464FF040220B43D3662E
:107A800000BF02B0704786B0039002910192019B43
:107A9000002B04D0039B03F58053059303E0039B65
:107AA00003F500530593059B0121029A01FA02F2A6
:107AB0001A6000BF06B0704700B587B0039002910E
:107AC0000192FFF723FF0590039B1A68029BDB439B
:107AD0001A400199029B0B401A43039B1A600598B8
:107AE000FFF720FF00BF07B05DF804FB82B00190F4
:107AF000044B03F500531A46019BC2F8203400BF23
:107B000002B0704700C0034082B0034600918DF878
:107B100007309DF80730002B0AD09DF80730012B65
:107B200006D09DF80730022B02D09DF80730032BBA
:107B300008489DF807200121009B994013465B00EF
:107B400013441B01034403F500531033196000BFB5
:107B500002B0704700C0034082B0034600918DF828
:107B600007309DF80730002B0AD09DF80730012B15
:107B700006D09DF80730022B02D09DF80730032B6A
:107B800008489DF807200121009B994013465B009F
:107B900013441B01034403F580531033196000BFE5
:107BA00002B0704700C0034000B585B00291019259
:107BB0001A4603468DF80F3013468DF80E309DF8A7
:107BC0000F30002B0AD09DF80F30012B06D09DF806
:107BD0000F30022B02D09DF80F30032B019B072B97
:107BE0000ED8019B9B00032202FA03F19DF80F209F
:107BF000019B9B0002FA03F31A461B48FFF75CFF48
:107C0000019B072B0FD8019B9B00032202FA03F173
:107C1000029B03F00302019B9B0002FA03F31A4646
:107C20001248FFF749FF9DF80E301A460199104897
:107C3000FFF729FF9DF818301A4601990D48FFF704
:107C400022FF0122019B02FA03F31846FFF74EFFC1
:107C50009DF81C301A4601990748FFF714FF00BF32
:107C600005B05DF804FB00BF00C4034008C4034036
:107C700010C4034014C4034024C4034000B585B0BD
:107C80000291019303468DF80F3013468DF80E30A4
:107C90009DF80F30002B0AD09DF80F30012B06D035
:107CA0009DF80F30022B02D09DF80F30032B9DF86A
:107CB0000E30002B0FD0019B002B06D09DF80F300B
:107CC00002991846FFF748FF05E09DF80F3002992A
:107CD0001846FFF719FF029B072B1AD89DF80F20B3
:107CE00013465B0013441B01043303F1804303F587
:107CF0007033029A92000F2101FA02F09DF80E10E3
:107D0000029A920001FA02F201461846FFF7D4FEE9
:107D10001BE09DF80F2013465B0013441B010C333E
:107D200003F1804303F57033029A083A92000F2161
:107D300001FA02F09DF80E10029A083A920001FA38
:107D400002F201461846FFF7B7FE9DF80E30002BF1
:107D50000FD1019B002B06D09DF80F3002991846D9
:107D6000FFF7FAFE05E09DF80F3002991846FFF77D
:107D7000CBFE00BF05B05DF804FB000082B00346F7
:107D80008DF807309DF90730002B0CDB9DF807308C
:107D900003F01F0205499DF907305B09012000FA35
:107DA00002F241F8232000BF02B0704700E100E07A
:107DB00082B003468DF807309DF90730002B0DDBAC
:107DC0009DF8073003F01F0206499DF907305B0953
:107DD000012000FA02F2603341F8232000BF02B014
:107DE000704700BF00E100E082B0034600918DF8CB
:107DF00007309DF90730002B0ADB009BDAB20C49F3
:107E00009DF907301201D2B20B4483F800230BE036
:107E1000009BDAB207499DF8073003F00F03043BDB
:107E20001201D2B20B441A7600BF02B0704700BFF5
:107E300000E100E000ED00E086B0039002910192C5
:107E4000019B002B04D0039B03F58053059303E0B3
:107E5000039B03F500530593059B0121029A01FA48
:107E600002F21A6000BF06B0704784B00190009122
:107E7000019B03F500530393039B009A1A6000BF14
:107E800004B0704782B003460A468DF807301346A7
:107E90008DF8063000BF02B07047000000B583B017
:107EA00001900B468DF8033001999DF8033083F063
:107EB0000103DBB21A460348FFF7BEFF00BF03B061
:107EC0005DF804FB4000044000B585B0019001213D
:107ED0001920FFF7D7FF1B4B01225A60019B1B782B
:107EE0001B060393174A039B9360019B5B781B045B
:107EF000019A92781146134A0B439361114BFF226A
:107F00009A62104B00229A630E4B00221A640D4BAA
:107F10004FF000425A650B4B03F500531A464FF0E1
:107F2000FF3313651520FFF743FF019BDB781946EC
:107F30001520FFF759FF1520FFF720FF00BF05B000
:107F40005DF804FB0000044000B587B00390029187
:107F50000192039BDBB21A460123934005933E4BEB
:107F600003F500531A46059B13653C49029B1A68AA
:107F7000039B41F82320029B5B7B37491846039AF9
:107F800013465B0013441B010B4460331860029BD3
:107F90009B7A1A04029BDB7A1B051A43029B1B7B0C
:107FA0005B0513432C491846039A13465B001344A0
:107FB0001B010B445C331860019B274823F003012D
:107FC000039A13465B0013441B010344703319608A
:107FD000FFF7B2FC0490204B5A6D1F49059B1343D9
:107FE0004B65029B1B7A002B05D01B4B1A6C1A4960
:107FF000059B13430B64029B5B7A002B05D0164B49
:108000009A6B1549059B13438B63029B1B791B04D9
:10801000029A92791343104A03F0FF1302F50052BB
:108020009361029B5B791B04029AD27913430A4A3B
:1080300003F0FF1302F58052936105990848FFF79A
:1080400014FF054A059B93640498FFF785FC00BF65
:1080500007B05DF804FB00BF00000440004004408E
:108060003400044000B589B00190019BDBB21A4690
:10807000012393400793FFF75FFC0690184B1B6D9D
:108080000593174B5B6B04931549019A13465B00EC
:1080900013441B010B4464331B6803930698FFF7DA
:1080A0005BFC059A079B13400593049A079B1340BA
:1080B0000493039B1B09C3F30A030393049B002B44
:1080C00005D1039B002B04D1059B002B01D000237D
:1080D00001E0039B0133184609B05DF804FB00BFC3
:1080E000000004404FF0402303F580531A464FF43C
:1080F0000033136700BF70474FF04023D3F894302C
:108100001846704782B001904FF09842019B13606F
:1081100000BF02B0704784B001900091019B9B6842
:10812000002B03D1019B009A9A600DE0019B9B6894
:10813000039302E0039B5B680393039B5B68012B43
:10814000F8D1039B009A5A6000BF04B0704782B018
:1081500001900091019BDB69032B0DD8019BDB692A
:10816000019A02339B001344009A5A60019BDB6919
:108170005A1C019BDA6100E000BF02B0704700B5F5
:1081800085B00190019BDB69042B32D800BF4FF012
:1081900098431B6C03F48013002BF8D0019BDB6920
:1081A00004334FF098429B001365019B1B681846EF
:1081B000FFF7A8FF019B5B681846FFF7A3FF019B31
:1081C0009B681846FFF79EFF002303930BE0019A7C
:1081D000039B02339B0013445B681846FFF792FF32
:1081E000039B01330393019BDB69039A9A42EED30D
:1081F00000E000BF05B05DF804FB000084B0019012
:108200000C4B5B690393039B9B09DBB203F03F03B9
:10821000DAB2019B9A70039BDBB203F03F03DAB240
:10822000019B5A70039B1B0BDAB2019B1A7000BFB3
:1082300004B0704700C0074082B001900B468DF833
:108240000330019B124A934205D1124A9DF8033034
:10825000C2F8843112E0019B0F4A934205D10D4AC6
:108260009DF80330C2F8943108E0019B0B4A934219
:1082700004D1084A9DF80330C2F8A431019BDB6D9C
:1082800043F08002019BDA6500BF02B0704700BF77
:10829000008005400080034000C00540000006400B
:1082A00000B587B00390029101928DF8033000234E
:1082B0000593029B002B03D10320FEF763F9029084
:1082C0009DF80330602B13D0602B14DC402B0CD0B6
:1082D000402B10DC002B02D0202B03D00BE010230E
:1082E000059309E00823059306E00623059303E0C0
:1082F0000423059300E000BF059B002B2AD0029BBE
:108300005A01059B019901FB03F35B081344049395
:10831000059B019A02FB03F3049AB2FBF3F3049367
:10832000049B203B0493049BDB000493049A0B4BB7
:1083300013400493039B9B6823F06002039B9A60A5
:10834000039B9A689DF803301A43039B9A60039B32
:10835000049ADA6100BF07B05DF804FBF8FF7F0004
:1083600084B001900B468DF80330019B164A93426E
:1083700006D0019B154A934202D0019B144A9342B6
:1083800000BF019B03F580531A46012353609DF8FB
:108390000330DB430393039B03F005030393039B29
:1083A0005A00019B5A619DF80320019B5A619DF878
:1083B0000330002B05D1019B03F500531A4601231E
:1083C000536000BF04B070470080054000C0054006
:1083D0000000064000B583B001900091019B5E4A09
:1083E000934206D0019B5D4A934202D0019B5C4AB6
:1083F000934200BF019800F0B7F8019B03F580534A
:108400001A4601235360009B9B7C002B05D0019BE7
:108410009B6843F08042019B9A60009BDB7C002BB1
:1084200005D0009B1B7D19460198FFF705FF009BB7
:108430005B7B1A46009B1B8A1343009AD2891A431E
:10844000019BDA60009B5968009B9A68009B1B7B2C
:108450000198FFF725FF009B5B7D002B05D0019B5A
:108460009B6843F48032019B9A60009B9B7D002BAC
:1084700005D0019B9B6843F40042019B9A60009BDE
:10848000DB7D1B0703F0E042009B1B7E1B0503F412
:10849000E0031A43019B9A65009B5B7E022B03D08D
:1084A000009B5B7E032B1CD12E4A019B2A498B42E9
:1084B0000ED0019B29498B4208D0019B28498B4251
:1084C00001D1022305E04FF0FF3302E0012300E079
:1084D00000235B01134403F5AD530C3302221A60F1
:1084E0001BE0204A019B1C498B420ED0019B1B497B
:1084F0008B4208D0019B1A498B4201D1022305E02F
:108500004FF0FF3302E0012300E000235B0113443E
:1085100003F516532C3302221A60009B5B7E012B5D
:1085200003D0009B5B7E032B06D1019B03F5805398
:108530001A460423D36505E0019B03F500531A4650
:108540000423D365009B1B781A46019B5A6100BF28
:1085500003B05DF804FB00BF0080054000C005408B
:108560000000064000C0034082B00190019B2C4AED
:10857000934206D0019B2B4A934202D0019B2A4A88
:10858000934200BF019B03F580531A4601235360B9
:10859000019B40F6AA625A61019B00229A60019BEE
:1085A0000022DA65019B41F20502DA60019B00229C
:1085B0001A61019B0022DA61019B0022DA64019BAF
:1085C00003F500531A46194B9364019B00229A65E8
:1085D000019B134A934207D0019B124A934203D056
:1085E000019B114A934202D1019B00221A65019B13
:1085F0000B4A934207D0019B0A4A934203D0019B46
:10860000094A934202D1019B00225A65019B03F55E
:1086100000531A460123536000BF02B0704700BFE9
:108620000080054000C0054000000640FFFF01003B
:1086300082B001900B468DF8033000BF019B9B690F
:1086400003F04003002BF9D09DF80320019BDA636F
:1086500000BF02B07047000030B583B001900198B0
:108660000FF0E6FD064A019B14461D460FCD0FC4D0
:1086700095E80F0084E80F000023184603B030BDD2
:108680003C1600208CB001900B468DF80330134649
:10869000ADF8003000230A93BDF9003047F6FF72B1
:1086A000934201D1FF23DEE09DF80330032B01D973
:1086B0000023D8E09DF80330DB006C4A1344079395
:1086C000079B9B780693079B1B78012B2BD10023DC
:1086D0000993079BDB781A46069BD31A0A9317E087
:1086E0000A9A099BD31A5B080A9AD31A0393079B29
:1086F0005A68039B5B001344B3F90030BDF90020B6
:108700009A4203DA039B013B0A9301E0039B09931E
:10871000099A0A9B9A42E3D30A9BDAB2069BDBB220
:108720001344DBB29FE0079B5B680593059B002B1E
:1087300001D1002397E0059BB3F90030BDF900207B
:108740009A4204DD059B1B88ADF800300AE0059BCA
:10875000B3F90230BDF900209A4203DA059B5B8829
:10876000ADF80030C823ADF822302823ADF8203012
:10877000059B9B88FF2B0AD10A9B01330A93059B1B
:10878000DB88ADF82230059B9B68ADF82030BDF941
:108790002220BDF90030D21ABDF9203092FBF3F34C
:1087A0001A460A9B13440A93079B5B78013B0A9A7B
:1087B0009A4203D9079B5B78013B0A930A9BDB0033
:1087C000059A134404330493049B5A68049BB3F939
:1087D00002301946BDF9003001FB03F31344002BAE
:1087E00002DA00230B930BE0049B5A68049BB3F955
:1087F00002301946BDF9003001FB03F313440B931B
:108800000B9B03F5FA731A4AA2FB03239B090B93F4
:108810000A9B01330A93079B5B781A460A9B934293
:1088200008D2059A0A9BDB0013449B881A460B9BCF
:108830009342C3D90A9B013B059ADB0013449B88F2
:108840001A460B9B934206D90A9B013B059ADB0013
:1088500013449B880B930B9A069B9A4201D2069B6A
:108860000B930B9BDBB218460CB070473C160020F4
:10887000D34D621088B001900B468DF8033013463B
:108880008DF802309DF80330032B01D9604BBBE01B
:108890009DF80330DB005F4A13440693069B1B7868
:1088A000012B26D1069BDB789DF802209A4203D942
:1088B000069BDB788DF80230069B9B789DF80220A2
:1088C000D31A8DF802309DF80220069BDB781946FA
:1088D000069B9B78CB1A9A4202DD00238DF802306A
:1088E000069B5A689DF802305B001344B3F90030D0
:1088F0008AE0069B5B680593059B002B01D1444BE6
:1089000082E0059B04330493049B002B01D1404B70
:108910007AE0069B9B789DF802209A4203D8059B3B
:10892000B3F9023070E0069BDB789DF802209A4292
:1089300003D3059BB3F9003066E000238DF81F30A8
:10894000069B5B78013B8DF80F30049B1B88FF2B47
:1089500014D101238DF81F3010E09DF81F30013332
:10896000DB00049A13441A889DF802309BB29A42A5
:108970000BD39DF81F3001338DF81F309DF81F2059
:108980009DF80F309A42E8D300E000BF9DF8023016
:108990004FF47A7203FB02F29DF81F30DB0004995A
:1089A0000B445B68D31A02939DF81F30DB00049AD6
:1089B0001344B3F90230DA0F13445B101BB21A46AA
:1089C000029B13449DF81F20D20004990A44B2F977
:1089D000022093FBF2F30293059BB3F900301A4691
:1089E000029B934203DD059BB3F900300CE0059B2D
:1089F000B3F902301A46029B934203DA059BB3F99E
:108A0000023001E0029B1BB2184608B0704700BF5D
:108A10000080FFFF3C16002008B50448FFF71CFE4D
:108A200001200FF007FC00BF08BD00BF2CED0100C6
:108A300000B587B001AB00221A605A609A60DA6014
:108A40001A6102238DF804300B4B029302238DF838
:108A50000D3004238DF80E3002238DF813300523DA
:108A60008DF8143001AB19464FF0FF300FF044FC85
:108A700000BF07B05DF804FB006A180000B583B0C2
:108A80006B4600221A605A6001238DF802306B4653
:108A900019464FF0FF300FF08FFB00BF03B05DF8B9
:108AA00004FB00B583B04FF040235B6F4FF04022D2
:108AB00043F0010353676B4600221A601A710023CA
:108AC0008DF804306B461846FEF7CCFF002318469D
:108AD00003B05DF804FB000008B50348FEF726F973
:108AE0000023184608BD00BF00B4C40430B587B0E9
:108AF0002B4B6C461D460FCD0FC42B681A462280A7
:108B000002341B0C237000238DF80D304FF0FF331F
:108B10000593244BD3F84C3103F40023002B04D1EC
:108B2000204BD3F85031DBB20593059BB3F1FF3FE7
:108B300008D11D4B1B884FF6FF72934202D01A4B8F
:108B40001B880593059BB3F1FF3F01D18523059356
:108B5000059BB3F1FF3F18D0059BDBB28DF80A30BF
:108B6000FEF746FA0246059B13440593059B002B2E
:108B700002DA0023059304E0059BFF2B01DDFF23B0
:108B80000593059BDBB28DF809300848FBF79AFD89
:108B90006B461846FEF746F90023184607B030BD6D
:108BA0004CED01000080E00F0001E00F00F04902F1
:108BB00000B585B00E4A01AB07CA03C31A80023361
:108BC000120C1A7000238DF807304F238DF80530F2
:108BD00004238DF8063001AB1846FEF711FA642025
:108BE000FEF76AFA0023184605B05DF804FB00BFE3
:108BF00060ED010082B0034600918DF807309DF9C9
:108C00000730002B0ADB009BDAB20C499DF90730D4
:108C10001201D2B20B4483F800230BE0009BDAB2BE
:108C200007499DF8073003F00F03043B1201D2B24D
:108C30000B441A7600BF02B0704700BF00E100E0AD
:108C400000ED00E000B583B0FB238DF807300CE0A9
:108C50009DF9073005211846FFF7CCFF9DF9073035
:108C6000DBB20133DBB28DF807309DF907303C2BC6
:108C7000EEDD0023184603B05DF804FB08B5FBF7F2
:108C8000DDFBFBF7F0FBFBF7F7FBFBF7FCFBFBF770
:108C900005FC00BF08BD08B5FBF70DFCFBF70DFC9C
:108CA000FBF710FCFBF710FC00BF08BD82B00346C9
:108CB0000A46ADF806301346ADF80430BDF804207E
:108CC000BDF80630934228BF13469BB2184602B047
:108CD000704782B001900B468DF80330019B1A68F3
:108CE000019B5A60019B1A68019B9A60019B1A685C
:108CF000019BDA60019B9DF803201A7400BF02B04B
:108D0000704786B0039002910192019A029BD31A98
:108D10000593059B002B05DA039B5B8A1A46059B8E
:108D200013440593059B9BB2184606B0704700B5E7
:108D300083B00190019B1B7C03F00103002B02D048
:108D4000019B5B8A08E0019B5968019B9B681A465E
:108D50000198FFF7D6FF0346184603B05DF804FB01
:108D600000B587B0039002911346ADF80630039822
:108D7000FFF7DDFF03461A46BDF8063011461846D8
:108D8000FFF794FF0346ADF80630BDF80630ADF8A6
:108D900016303CE0039B1B68039A528A1A44039BDB
:108DA0005B68D31A9AB2BDF8163011461846FFF721
:108DB0007DFF0346ADF81430029B002B0CD0039BC3
:108DC0005B68BDF814201946029815F0CDF8BDF87F
:108DD0001430029A13440293039B5A68BDF814306E
:108DE0001A44039B5A60BDF81620BDF81430D31AFC
:108DF000ADF81630039B5A68039B1B680399498A98
:108E00000B449A4203D3039B1A68039B5A60BDF834
:108E10001630002BBED1BDF80630002B19D0039BB5
:108E20001B7C03F00103002B06D0039B1B7C23F06B
:108E30000103DAB2039B1A74039B1B7C03F0020349
:108E4000002B06D0039B1B7C23F00203DAB2039BAA
:108E50001A74BDF80630184607B05DF804FB00B57B
:108E600085B0039002911346ADF80630039B1B6852
:108E7000039A528A1A44039BDB68D31A9AB2BDF84C
:108E8000063011461846FFF711FF0346ADF80630CD
:108E9000029B002B03D0039BDA68029B1A60039BA2
:108EA000DA68BDF806301A44039BDA60039BDA687F
:108EB000039B1B680399498A0B449A4207D3039B7F
:108EC000DA68039B5B8A5B421A44039BDA60039B6C
:108ED000DA68039B5B689A4206D1039B1B7C43F0D4
:108EE0000203DAB2039B1A74BDF80630184605B0C7
:108EF0005DF804FB82B001900091019B9B68009A91
:108F00009A4221D0019B009A9A60019B9A68019B2A
:108F10001B680199498A0B449A4207D3019B9A68BE
:108F2000019B5B8A5B421A44019B9A60019B9A6891
:108F3000019B5B689A4208D1019B1B7C43F00103B3
:108F4000DAB2019B1A7400E000BF02B0704700B5AE
:108F500083B001900B46ADF8023013468DF8013016
:108F60009DF80120BDF90230194601980AF06CFE07
:108F70000346184603B05DF804FB000008B5402224
:108F800000210B4815F017F80A4B00221A700A4B03
:108F9000074A1A60094B01221A80094B00221A80E5
:108FA000084B40221A80084B00221A7000BF08BDEF
:108FB0005C160020A01600209C160020A21600209F
:108FC000A4160020A6160020A816002008B500222E
:108FD00000210020FFF7BBFFFFF7D0FF00BF08BD57
:108FE00000B583B000F03AFB0346002B40F36081EC
:108FF0009C4B1A889C4B1B889A4204D39A4B1B8823
:10900000ADF8063003E0974B1B88ADF80630974B60
:109010001B68BDF806201146184600F0F9FA034611
:10902000ADF80430914B1A68BDF8043013448F4AF0
:1090300013608F4B1A88BDF8043013449AB28C4BDE
:109040001A80884B1A88BDF80430D31A9AB2854B1F
:109050001A80854B1A88BDF80430D31A9AB2824B15
:109060001A80804B1B88012B06D1824B1B78022B68
:1090700002D1012000F0BEFA7A4B1B88002B04D0ED
:10908000794B1B88002B40F015817A4B1B78022B03
:109090004ED0022B00F30981002B02D0012B1DD0F2
:1090A00003E1754B1B78022B0DD0022B0FDC002B3C
:1090B00002D0012B03D00AE0FFF760FFFBE0694B11
:1090C00003221A8006E0674B04221A8002E0FFF7B1
:1090D0007DFFF0E0674B01221A70ECE0664B1B78D5
:1090E000012B02D0022B06D00CE0634BDB789AB246
:1090F0005C4B1A8009E0604BB3F803309AB2594BCD
:109100001A8002E0FFF762FFD5E0564B1B88002B68
:109110000AD1574B1B881BB2012219465648FFF74C
:1091200016FFFFF72BFFC6E0524B02221A70C2E077
:109130004C4B1B88002B0BD0002240214E48FFF7E0
:1091400006FF494B40221A80484B4B4A1A60B2E056
:10915000002000F04FFA484B1B78012B7BD1464B87
:10916000B3F801309BB240F6314293420FD0424BEC
:10917000B3F801309BB240F63342934207D03E4BE6
:10918000B3F801309BB240F63542934263D13A4B7B
:10919000B3F801309BB240F63542934237D040F6E7
:1091A0003542934259DC40F63142934204D040F6B6
:1091B0003342934212D050E0012200212F4814F094
:1091C000FAFE2D4BDB78012B49D12B4B04332A4A75
:1091D000D2781946294814F0C7FE40E00722002142
:1091E000274814F0E8FE244BDB78072B07D1224BED
:1091F0000433214AD2781946214814F0B5FE204B99
:10920000B3F803309BB2DAB21E4B1A703FE005226E
:1092100000211D4814F0CFFE174BDB78052B07D13A
:10922000154B0433144AD2781946174814F09CFEA3
:10923000154BB3F803309BB2DAB2124B1B781344D0
:10924000DAB2104B1A700F4B1B78062B1ED90D4B40
:1092500006221A701AE000BF19E000BF17E000BF35
:1092600015E000BFA2160020A61600209C160020C4
:10927000A4160020A01600205C160020AC160020CA
:10928000B0160020A8160020B816002000BF0B4B17
:109290001B88C3F140039BB21BB201221946084848
:1092A000FFF755FEFFF76AFE05E0FFF78FFE02E0CD
:1092B00000BF00E000BF03B05DF804FBA61600206D
:1092C0005C16002000B5A5B001900B46ADF8023049
:1092D00002AB86220021184614F06DFEBDF9022073
:1092E00002AB0199184614F03FFE9DF80830042B9C
:1092F0003CD19DF809300E2B30D1BDF80C3041F235
:10930000020293420ED19DF8193063F01F03DBB2C5
:109310008DF81930BDF9022002AB1946019814F0FE
:1093200023FE1BE0BDF80C3040F6314293420BD0D7
:10933000BDF80C3040F63342934205D0BDF80C30F6
:1093400040F63542934209D100238DF80E30BDF925
:10935000022002AB1946019814F006FEBDF8023057
:109360001946019800F0A4F903461DE0104B1B7844
:10937000002B12D00E4B1B78013BDAB20C4B1A704B
:109380000B4B1B78002B05D10020FAF763FF4FF041
:10939000FF3309E00120FAF75DFFBDF802301946FE
:1093A000019800F085F90346184625B05DF804FBE6
:1093B000A816002008B5FFF7E1FD00F049F800BF4E
:1093C00008BD000082B003468DF807309DF90730D4
:1093D000002B0CDB9DF8073003F01F0205499DF9B7
:1093E00007305B09012000FA02F241F8232000BF98
:1093F00002B0704700E100E082B001900091019B53
:1094000003F500531A46009B936400BF02B07047F7
:1094100082B00190019B9B6C184602B0704700B56A
:1094200083B0019001980AF0B9FC00BF03B05DF869
:1094300004FB82B00190019B1B68184602B0704784
:1094400082B00190019B5B8A184602B07047000011
:1094500008B500210B48FFF73CFC0B4B094A1A608A
:10946000FBF760F80346094A136000F013F8074B56
:109470001B68184600F058F805210548FEF770FFF4
:1094800000BF08BD4C11002004170020C0160020AA
:109490000080054008B50B20FFF794FF00BF08BD12
:1094A00000B583B00D48FFF7B3FF03460193019B5E
:1094B00003F00403002B04D004210848FFF79CFFAD
:1094C00008E0019B03F00803002B03D008210348A8
:1094D000FFF792FF00BF03B05DF804FB008005407A
:1094E00000B587B00390029101920E4B1B6818469D
:1094F000FFF7A6FF03465B089BB20593094B1B6869
:10950000059A92B204A91846FFF7A9FC054B1B68FF
:10951000049A11461846FFF7EDFC0123184607B0E0
:109520005DF804FB0417002000B58DB007901E4BBA
:109530001B681846FFF784FF03465B089BB20B933A
:10954000194B1B680B9A92B200211846FFF787FC53
:10955000154B1B681846FFF76CFF0A90124B1B68EF
:109560001846FFF766FF02460B9B13440993079BBF
:109570001B6824330893079BD868079B596900230D
:1095800005930A4B0493002303930B9B029301233F
:109590000193089B0093099B0A9AFBF7A8FB00BF65
:1095A0000DB05DF804FB00BF04170020E19400003B
:1095B00000B585B0019000230393019BDB6803AAEB
:1095C00011461846FBF75AFC094B1B6802A90022FA
:1095D0001846FFF744FC064B1868029A039B5B424F
:1095E00013441946FFF786FC00BF05B05DF804FB85
:1095F0000417002082B003468DF80730034A9DF817
:109600000730137000BF02B0704700BFBD160020C6
:1096100000B585B001900B46ADF80230FEF78CF92D
:1096200003900C4B1B681846FFF7C2FF0398FEF728
:1096300093F9094B1B68BDF8022001991846FFF702
:109640008FFB0346ADF80230BDF80230184605B076
:109650005DF804FBC01600200417002000B583B09D
:10966000FEF76AF90190094B1B681846FFF7A0FF47
:109670000198FEF771F9064B1B681846FFF757FB78
:109680000346184603B05DF804FB00BFC016002077
:109690000417002000B585B0039002910192009359
:1096A0000298FFF7BCFE00BF05B05DF804FB0000A8
:1096B00000B585B001900B46ADF80230FEF73CF9DD
:1096C0000390084B1868BDF80220074B0199FCF77E
:1096D00037FE02900398FEF73FF9029B184605B04B
:1096E0005DF804FBC01600209596000000B585B01B
:1096F0000190FEF70BF90390019814F01DFC0398FC
:10970000FEF710F900BF05B05DF804FB00B583B0AB
:1097100001900091009B002B05D0054B1B68009A1F
:1097200000210198984700BF03B05DF804FB00BF1B
:109730006011002000B583B00190019B1B6A002BD3
:1097400007D0019B1A6A019B5B6A19461046FFF716
:10975000DDFF019B1B6A1846FFF7C8FF019B002233
:109760001A62019B00225A620023184603B05DF87A
:1097700004FB00B585B001900198FFF7DBFF039073
:10978000019BDB69012B02D06FF096030393282223
:109790000021019814F00FFC039B184605B05DF8FA
:1097A00004FB00B583B0019008220021019814F059
:1097B00002FC00BF03B05DF804FB00B583B001906C
:1097C00008220021019814F0F6FB00BF03B05DF8F9
:1097D00004FB82B001900023184602B070470000DD
:1097E00000B585B001900091114B1B7A03F0010385
:1097F000DBB2002B02D16FF0880315E00023029347
:1098000002AB009A01990A4800F0F1FD0390039B16
:10981000002B01D0039B07E0029B009A9A4202D0E2
:109820006FF0930300E00023184605B05DF804FBD9
:109830000817002008B500F079F8084B1B7A03F0F0
:109840000603DBB2002B02D00448FFF7B6FF0C2161
:109850000248FFF75BFF00BF08BD00BF08170020EC
:1098600000B583B0214B1B7A03F00103DBB2002B60
:1098700001D0002336E01D48FFF793FF1B4A137AFF
:10988000012161F3420313721848FFF7A2FF019010
:10989000019B002B1BD1154A137A022161F342036D
:1098A000137200F037F80190019B002B11D100F0EA
:1098B0001FF80190019B13F1860F02D0019B002B32
:1098C00009D10A4A137A43F00103137204E000BF7E
:1098D00002E000BF00E000BF019B002B01D0FFF7BA
:1098E000A9FF019B184603B05DF804FB0817002090
:1098F00000B583B00023019300F038FD0190019B77
:10990000002B01D0019B00E0019B184603B05DF8DD
:1099100004FB0000044A92F8783043F0010382F817
:1099200078300023184670471417002000B583B024
:109930000023019310E0019A13469B001344DB00BF
:109940000C4A13440093009B0122DA610098FFF750
:1099500010FF019B01330193019B022BEBD9054AB8
:1099600092F878306FF3000382F8783000BF03B0CC
:109970005DF804FB141700204FF098435B6C03F470
:109980008013002B14BF01230023DBB2184670475D
:1099900008B500BFFFF7F0FF034683F00103DBB219
:1099A000002BF7D100BF00BF08BD08B5FFF7F0FFDF
:1099B0004FF098435B6D03F47023184608BD82B0E6
:1099C00000230193019B184602B0704782B00190BA
:1099D000019BB3F57F0F5BD0019BB3F57F0F5DD883
:1099E000019BB3F5302F57D0019BB3F5302F55D8DD
:1099F000019BB3F5202F4DD0019BB3F5202F4DD8FF
:109A0000019BB3F5E02F41D0019BB3F5E02F45D882
:109A1000019BB3F5C02F37D0019BB3F5C02F3DD8C4
:109A2000019BB3F5A02F2DD0019BB3F5A02F35D806
:109A3000019BB3F5802F23D0019BB3F5802F2DD848
:109A4000019BB3F5403F19D0019BB3F5403F25D8AA
:109A5000019BB3F5003F0FD0019BB3F5003F1DD82C
:109A6000019B002B04D0019BB3F5803F02D015E091
:109A7000002314E0482312E02A2310E02C230EE0F8
:109A80004B230CE001230AE0012308E0212306E038
:109A9000062304E0102302E0112300E0012318460E
:109AA00002B0704782B000230193019B184602B0B8
:109AB000704700231846704700B585B00190019BA0
:109AC000002B01D121231AE0FFF7ECFF0390039B49
:109AD000002B01D0039B12E0019B1846FEF74FFBC1
